{
  "contractName": "DeedFactory",
  "abi": [
    {
      "inputs": [],
      "stateMutability": "nonpayable",
      "type": "constructor"
    },
    {
      "anonymous": false,
      "inputs": [
        {
          "indexed": true,
          "internalType": "bytes32",
          "name": "role",
          "type": "bytes32"
        },
        {
          "indexed": true,
          "internalType": "bytes32",
          "name": "previousAdminRole",
          "type": "bytes32"
        },
        {
          "indexed": true,
          "internalType": "bytes32",
          "name": "newAdminRole",
          "type": "bytes32"
        }
      ],
      "name": "RoleAdminChanged",
      "type": "event"
    },
    {
      "anonymous": false,
      "inputs": [
        {
          "indexed": true,
          "internalType": "bytes32",
          "name": "role",
          "type": "bytes32"
        },
        {
          "indexed": true,
          "internalType": "address",
          "name": "account",
          "type": "address"
        },
        {
          "indexed": true,
          "internalType": "address",
          "name": "sender",
          "type": "address"
        }
      ],
      "name": "RoleGranted",
      "type": "event"
    },
    {
      "anonymous": false,
      "inputs": [
        {
          "indexed": true,
          "internalType": "bytes32",
          "name": "role",
          "type": "bytes32"
        },
        {
          "indexed": true,
          "internalType": "address",
          "name": "account",
          "type": "address"
        },
        {
          "indexed": true,
          "internalType": "address",
          "name": "sender",
          "type": "address"
        }
      ],
      "name": "RoleRevoked",
      "type": "event"
    },
    {
      "inputs": [],
      "name": "ADMINS",
      "outputs": [
        {
          "internalType": "bytes32",
          "name": "",
          "type": "bytes32"
        }
      ],
      "stateMutability": "view",
      "type": "function"
    },
    {
      "inputs": [],
      "name": "DEFAULT_ADMIN_ROLE",
      "outputs": [
        {
          "internalType": "bytes32",
          "name": "",
          "type": "bytes32"
        }
      ],
      "stateMutability": "view",
      "type": "function"
    },
    {
      "inputs": [
        {
          "internalType": "uint256",
          "name": "",
          "type": "uint256"
        }
      ],
      "name": "deedArray",
      "outputs": [
        {
          "internalType": "uint256",
          "name": "deedId",
          "type": "uint256"
        },
        {
          "internalType": "string",
          "name": "name",
          "type": "string"
        },
        {
          "internalType": "string",
          "name": "status",
          "type": "string"
        },
        {
          "internalType": "string",
          "name": "comments",
          "type": "string"
        },
        {
          "internalType": "string",
          "name": "jsonHash",
          "type": "string"
        },
        {
          "internalType": "string",
          "name": "coordinates",
          "type": "string"
        }
      ],
      "stateMutability": "view",
      "type": "function"
    },
    {
      "inputs": [
        {
          "internalType": "bytes32",
          "name": "role",
          "type": "bytes32"
        }
      ],
      "name": "getRoleAdmin",
      "outputs": [
        {
          "internalType": "bytes32",
          "name": "",
          "type": "bytes32"
        }
      ],
      "stateMutability": "view",
      "type": "function"
    },
    {
      "inputs": [
        {
          "internalType": "bytes32",
          "name": "role",
          "type": "bytes32"
        },
        {
          "internalType": "uint256",
          "name": "index",
          "type": "uint256"
        }
      ],
      "name": "getRoleMember",
      "outputs": [
        {
          "internalType": "address",
          "name": "",
          "type": "address"
        }
      ],
      "stateMutability": "view",
      "type": "function"
    },
    {
      "inputs": [
        {
          "internalType": "bytes32",
          "name": "role",
          "type": "bytes32"
        }
      ],
      "name": "getRoleMemberCount",
      "outputs": [
        {
          "internalType": "uint256",
          "name": "",
          "type": "uint256"
        }
      ],
      "stateMutability": "view",
      "type": "function"
    },
    {
      "inputs": [
        {
          "internalType": "bytes32",
          "name": "role",
          "type": "bytes32"
        },
        {
          "internalType": "address",
          "name": "account",
          "type": "address"
        }
      ],
      "name": "grantRole",
      "outputs": [],
      "stateMutability": "nonpayable",
      "type": "function"
    },
    {
      "inputs": [
        {
          "internalType": "bytes32",
          "name": "role",
          "type": "bytes32"
        },
        {
          "internalType": "address",
          "name": "account",
          "type": "address"
        }
      ],
      "name": "hasRole",
      "outputs": [
        {
          "internalType": "bool",
          "name": "",
          "type": "bool"
        }
      ],
      "stateMutability": "view",
      "type": "function"
    },
    {
      "inputs": [
        {
          "internalType": "bytes32",
          "name": "role",
          "type": "bytes32"
        },
        {
          "internalType": "address",
          "name": "account",
          "type": "address"
        }
      ],
      "name": "renounceRole",
      "outputs": [],
      "stateMutability": "nonpayable",
      "type": "function"
    },
    {
      "inputs": [
        {
          "internalType": "bytes32",
          "name": "role",
          "type": "bytes32"
        },
        {
          "internalType": "address",
          "name": "account",
          "type": "address"
        }
      ],
      "name": "revokeRole",
      "outputs": [],
      "stateMutability": "nonpayable",
      "type": "function"
    },
    {
      "inputs": [
        {
          "internalType": "address",
          "name": "_minter",
          "type": "address"
        },
        {
          "internalType": "bool",
          "name": "status",
          "type": "bool"
        }
      ],
      "name": "setAdminAuthorization",
      "outputs": [],
      "stateMutability": "nonpayable",
      "type": "function"
    },
    {
      "inputs": [
        {
          "internalType": "address",
          "name": "_minter",
          "type": "address"
        }
      ],
      "name": "getAdminAuthorization",
      "outputs": [
        {
          "internalType": "bool",
          "name": "",
          "type": "bool"
        }
      ],
      "stateMutability": "view",
      "type": "function"
    },
    {
      "inputs": [
        {
          "internalType": "address",
          "name": "_owner",
          "type": "address"
        }
      ],
      "name": "getDeedByOwner",
      "outputs": [
        {
          "internalType": "uint256[]",
          "name": "",
          "type": "uint256[]"
        }
      ],
      "stateMutability": "view",
      "type": "function"
    }
  ],
  "bytecode": "0x60806040523480156200001157600080fd5b50620000276000801b336200002d60201b60201c565b620001c3565b6200003f82826200004360201b60201c565b5050565b6200007181600080858152602001908152602001600020600001620000e660201b62000f721790919060201c565b15620000e257620000876200011e60201b60201c565b73ffffffffffffffffffffffffffffffffffffffff168173ffffffffffffffffffffffffffffffffffffffff16837f2f8788117e7eff1d82e926ec794901d17c78024a50270940304540a733656f0d60405160405180910390a45b5050565b600062000116836000018373ffffffffffffffffffffffffffffffffffffffff1660001b6200012660201b60201c565b905092915050565b600033905090565b60006200013a8383620001a060201b60201c565b620001955782600001829080600181540180825580915050600190039060005260206000200160009091909190915055826000018054905083600101600084815260200190815260200160002081905550600190506200019a565b600090505b92915050565b600080836001016000848152602001908152602001600020541415905092915050565b61145480620001d36000396000f3fe608060405234801561001057600080fd5b50600436106100cf5760003560e01c80639010d07c1161008c578063c179628911610066578063c1796289146105c3578063ca15c8731461061f578063cee42cce14610661578063d547741f146106b1576100cf565b80639010d07c146104c757806391d148541461053f578063a217fddf146105a5576100cf565b8063248a9ca3146100d45780632f2ff15d1461011657806336568abe146101645780633e76aa75146101b257806346f3cf921461041057806372c69e8b146104a9575b600080fd5b610100600480360360208110156100ea57600080fd5b81019080803590602001909291905050506106ff565b6040518082815260200191505060405180910390f35b6101626004803603604081101561012c57600080fd5b8101908080359060200190929190803573ffffffffffffffffffffffffffffffffffffffff16906020019092919050505061071e565b005b6101b06004803603604081101561017a57600080fd5b8101908080359060200190929190803573ffffffffffffffffffffffffffffffffffffffff1690602001909291905050506107a7565b005b6101de600480360360208110156101c857600080fd5b8101908080359060200190929190505050610840565b60405180878152602001806020018060200180602001806020018060200186810386528b818151815260200191508051906020019080838360005b83811015610234578082015181840152602081019050610219565b50505050905090810190601f1680156102615780820380516001836020036101000a031916815260200191505b5086810385528a818151815260200191508051906020019080838360005b8381101561029a57808201518184015260208101905061027f565b50505050905090810190601f1680156102c75780820380516001836020036101000a031916815260200191505b50868103845289818151815260200191508051906020019080838360005b838110156103005780820151818401526020810190506102e5565b50505050905090810190601f16801561032d5780820380516001836020036101000a031916815260200191505b50868103835288818151815260200191508051906020019080838360005b8381101561036657808201518184015260208101905061034b565b50505050905090810190601f1680156103935780820380516001836020036101000a031916815260200191505b50868103825287818151815260200191508051906020019080838360005b838110156103cc5780820151818401526020810190506103b1565b50505050905090810190601f1680156103f95780820380516001836020036101000a031916815260200191505b509b50505050505050505050505060405180910390f35b6104526004803603602081101561042657600080fd5b81019080803573ffffffffffffffffffffffffffffffffffffffff169060200190929190505050610b81565b6040518080602001828103825283818151815260200191508051906020019060200280838360005b8381101561049557808201518184015260208101905061047a565b505050509050019250505060405180910390f35b6104b1610cc5565b6040518082815260200191505060405180910390f35b6104fd600480360360408110156104dd57600080fd5b810190808035906020019092919080359060200190929190505050610cfe565b604051808273ffffffffffffffffffffffffffffffffffffffff1673ffffffffffffffffffffffffffffffffffffffff16815260200191505060405180910390f35b61058b6004803603604081101561055557600080fd5b8101908080359060200190929190803573ffffffffffffffffffffffffffffffffffffffff169060200190929190505050610d2f565b604051808215151515815260200191505060405180910390f35b6105ad610d60565b6040518082815260200191505060405180910390f35b610605600480360360208110156105d957600080fd5b81019080803573ffffffffffffffffffffffffffffffffffffffff169060200190929190505050610d67565b604051808215151515815260200191505060405180910390f35b61064b6004803603602081101561063557600080fd5b8101908080359060200190929190505050610daf565b6040518082815260200191505060405180910390f35b6106af6004803603604081101561067757600080fd5b81019080803573ffffffffffffffffffffffffffffffffffffffff169060200190929190803515159060200190929190505050610dd5565b005b6106fd600480360360408110156106c757600080fd5b8101908080359060200190929190803573ffffffffffffffffffffffffffffffffffffffff169060200190929190505050610ee9565b005b6000806000838152602001908152602001600020600201549050919050565b6107446000808481526020019081526020016000206002015461073f610fa2565b610d2f565b610799576040517f08c379a000000000000000000000000000000000000000000000000000000000815260040180806020018281038252602f815260200180611391602f913960400191505060405180910390fd5b6107a38282610faa565b5050565b6107af610fa2565b73ffffffffffffffffffffffffffffffffffffffff168173ffffffffffffffffffffffffffffffffffffffff1614610832576040517f08c379a000000000000000000000000000000000000000000000000000000000815260040180806020018281038252602f8152602001806113f0602f913960400191505060405180910390fd5b61083c828261103d565b5050565b6001818154811061084d57fe5b9060005260206000209060060201600091509050806000015490806001018054600181600116156101000203166002900480601f0160208091040260200160405190810160405280929190818152602001828054600181600116156101000203166002900480156108ff5780601f106108d4576101008083540402835291602001916108ff565b820191906000526020600020905b8154815290600101906020018083116108e257829003601f168201915b505050505090806002018054600181600116156101000203166002900480601f01602080910402602001604051908101604052809291908181526020018280546001816001161561010002031660029004801561099d5780601f106109725761010080835404028352916020019161099d565b820191906000526020600020905b81548152906001019060200180831161098057829003601f168201915b505050505090806003018054600181600116156101000203166002900480601f016020809104026020016040519081016040528092919081815260200182805460018160011615610100020316600290048015610a3b5780601f10610a1057610100808354040283529160200191610a3b565b820191906000526020600020905b815481529060010190602001808311610a1e57829003601f168201915b505050505090806004018054600181600116156101000203166002900480601f016020809104026020016040519081016040528092919081815260200182805460018160011615610100020316600290048015610ad95780601f10610aae57610100808354040283529160200191610ad9565b820191906000526020600020905b815481529060010190602001808311610abc57829003601f168201915b505050505090806005018054600181600116156101000203166002900480601f016020809104026020016040519081016040528092919081815260200182805460018160011615610100020316600290048015610b775780601f10610b4c57610100808354040283529160200191610b77565b820191906000526020600020905b815481529060010190602001808311610b5a57829003601f168201915b5050505050905086565b606080600360008473ffffffffffffffffffffffffffffffffffffffff1673ffffffffffffffffffffffffffffffffffffffff1681526020019081526020016000205467ffffffffffffffff81118015610bda57600080fd5b50604051908082528060200260200182016040528015610c095781602001602082028036833780820191505090505b509050600080905060008090505b600180549050811015610cba573373ffffffffffffffffffffffffffffffffffffffff166002600083815260200190815260200160002060009054906101000a900473ffffffffffffffffffffffffffffffffffffffff1673ffffffffffffffffffffffffffffffffffffffff161415610cad5780838381518110610c9857fe5b60200260200101818152505081806001019250505b8080600101915050610c17565b508192505050919050565b60405180807f41444d494e5300000000000000000000000000000000000000000000000000008152506006019050604051809103902081565b6000610d27826000808681526020019081526020016000206000016110d090919063ffffffff16565b905092915050565b6000610d58826000808681526020019081526020016000206000016110ea90919063ffffffff16565b905092915050565b6000801b81565b6000610da860405180807f41444d494e5300000000000000000000000000000000000000000000000000008152506006019050604051809103902083610d2f565b9050919050565b6000610dce60008084815260200190815260200160002060000161111a565b9050919050565b610de26000801b33610d2f565b610e54576040517f08c379a000000000000000000000000000000000000000000000000000000000815260040180806020018281038252600d8152602001807f4e6f7420546865204f776e65720000000000000000000000000000000000000081525060200191505060405180910390fd5b600115158115151415610ea557610ea060405180807f41444d494e530000000000000000000000000000000000000000000000000000815250600601905060405180910390208361071e565b610ee5565b610ee460405180807f41444d494e5300000000000000000000000000000000000000000000000000008152506006019050604051809103902083610ee9565b5b5050565b610f0f60008084815260200190815260200160002060020154610f0a610fa2565b610d2f565b610f64576040517f08c379a00000000000000000000000000000000000000000000000000000000081526004018080602001828103825260308152602001806113c06030913960400191505060405180910390fd5b610f6e828261103d565b5050565b6000610f9a836000018373ffffffffffffffffffffffffffffffffffffffff1660001b61112f565b905092915050565b600033905090565b610fd181600080858152602001908152602001600020600001610f7290919063ffffffff16565b1561103957610fde610fa2565b73ffffffffffffffffffffffffffffffffffffffff168173ffffffffffffffffffffffffffffffffffffffff16837f2f8788117e7eff1d82e926ec794901d17c78024a50270940304540a733656f0d60405160405180910390a45b5050565b6110648160008085815260200190815260200160002060000161119f90919063ffffffff16565b156110cc57611071610fa2565b73ffffffffffffffffffffffffffffffffffffffff168173ffffffffffffffffffffffffffffffffffffffff16837ff6391f5c32d9c69d2a47ea670b442974b53935d1edc7fd64eb21e047a839171b60405160405180910390a45b5050565b60006110df83600001836111cf565b60001c905092915050565b6000611112836000018373ffffffffffffffffffffffffffffffffffffffff1660001b611252565b905092915050565b600061112882600001611275565b9050919050565b600061113b8383611252565b611194578260000182908060018154018082558091505060019003906000526020600020016000909190919091505582600001805490508360010160008481526020019081526020016000208190555060019050611199565b600090505b92915050565b60006111c7836000018373ffffffffffffffffffffffffffffffffffffffff1660001b611286565b905092915050565b600081836000018054905011611230576040517f08c379a000000000000000000000000000000000000000000000000000000000815260040180806020018281038252602281526020018061136f6022913960400191505060405180910390fd5b82600001828154811061123f57fe5b9060005260206000200154905092915050565b600080836001016000848152602001908152602001600020541415905092915050565b600081600001805490509050919050565b6000808360010160008481526020019081526020016000205490506000811461136257600060018203905060006001866000018054905003905060008660000182815481106112d157fe5b90600052602060002001549050808760000184815481106112ee57fe5b906000526020600020018190555060018301876001016000838152602001908152602001600020819055508660000180548061132657fe5b60019003818190600052602060002001600090559055866001016000878152602001908152602001600020600090556001945050505050611368565b60009150505b9291505056fe456e756d657261626c655365743a20696e646578206f7574206f6620626f756e6473416363657373436f6e74726f6c3a2073656e646572206d75737420626520616e2061646d696e20746f206772616e74416363657373436f6e74726f6c3a2073656e646572206d75737420626520616e2061646d696e20746f207265766f6b65416363657373436f6e74726f6c3a2063616e206f6e6c792072656e6f756e636520726f6c657320666f722073656c66a2646970667358221220646b7fbe4a6730cd5e99682d5dee3ea33d586af71c57bf915aebbad03e98b49964736f6c63430006080033",
  "immutableReferences": {},
  "source": "pragma solidity ^0.6.0;\n\nimport \"@openzeppelin/contracts/access/AccessControl.sol\";\n// import \"https://github.com/OpenZeppelin/openzeppelin-contracts/blob/master/contracts/access/AccessControl.sol\";\n\ncontract DeedFactory is AccessControl {\n    struct Deed {\n        uint256 deedId;\n        string name;\n        /* like an ENUM:\n            P = Pending\n            C = Confirmed\n            R = Rejected\n            D = Disputed\n\n            Testing this will be annoying since we'd need multiple different metamask accounts with \n            different permissions to be able to edit different things.\n            */\n        string status;\n        \n        string comments;\n        string jsonHash;\n        string coordinates;\n    }\n\n    Deed[] public deedArray;\n\n    mapping(uint256 => address) internal _balances;\n    mapping(address => uint256) internal ownerTokenCount;\n    \n    bytes32 public constant ADMINS = keccak256('ADMINS');\n    \n    modifier ownsDeed(uint256 _deedId) {\n        require(\n            (_balances[_deedId] == msg.sender),\n            \"You don't own the deed!\"\n        );\n        _;\n    }\n\n    modifier onlyOwners() {\n        require(hasRole(DEFAULT_ADMIN_ROLE, msg.sender), \"Not The Owner\");\n        _;\n    }\n\n    modifier onlyAdmins() {\n        require(\n            hasRole(ADMINS, msg.sender) ||\n                hasRole(DEFAULT_ADMIN_ROLE, msg.sender),\n            \"Not An Admin\"\n        );\n        _;\n    }\n\n    constructor() public {\n        _setupRole(DEFAULT_ADMIN_ROLE, msg.sender);\n    }\n\n    function setAdminAuthorization(address _minter, bool status) external onlyOwners {\n        if (status == true) {\n            grantRole(ADMINS, _minter);\n        } else {\n            revokeRole(ADMINS, _minter);\n        }\n    }\n\n    function getAdminAuthorization(address _minter) external view returns (bool) {\n        return hasRole(ADMINS, _minter);\n    }\n\n    function getDeedByOwner(address _owner)\n        external\n        view\n        returns (uint256[] memory)\n    {\n        uint256[] memory result = new uint256[](ownerTokenCount[_owner]);\n        uint256 counter = 0;\n        for (uint256 i = 0; i < deedArray.length; i++) {\n            if (_balances[i] == msg.sender) {\n                result[counter] = i;\n                counter++;\n            }\n        }\n        return result;\n    }\n\n    // Make a new deed\n    // function newDeed(string calldata _name, string calldata _jsonHash, string calldata _coordinates) external {\n        \n    // }\n    \n    // Tranfer a deed from one person to another\n    // function transferDeed(uint _deedId, address _newOwner) external ownsDeed(_deedId) {\n        \n    // }\n    \n    // For admins to set the status of a deed\n    // function setStatus(string calldata _status, uint _deedId) onlyAdmins {\n        \n    // }\n}\n",
  "sourcePath": "/Users/timg/Documents/GitHub/landrules/landrules-server/contracts/DeedFactory.sol",
  "compiler": {
    "name": "solc",
    "version": "0.6.8+commit.0bbfe453.Emscripten.clang"
  },
  "schemaVersion": "3.2.3",
  "updatedAt": "2021-02-10T07:16:16.044Z",
  "devdoc": {
    "methods": {
      "getRoleAdmin(bytes32)": {
        "details": "Returns the admin role that controls `role`. See {grantRole} and {revokeRole}.     * To change a role's admin, use {_setRoleAdmin}."
      },
      "getRoleMember(bytes32,uint256)": {
        "details": "Returns one of the accounts that have `role`. `index` must be a value between 0 and {getRoleMemberCount}, non-inclusive.     * Role bearers are not sorted in any particular way, and their ordering may change at any point.     * WARNING: When using {getRoleMember} and {getRoleMemberCount}, make sure you perform all queries on the same block. See the following https://forum.openzeppelin.com/t/iterating-over-elements-on-enumerableset-in-openzeppelin-contracts/2296[forum post] for more information."
      },
      "getRoleMemberCount(bytes32)": {
        "details": "Returns the number of accounts that have `role`. Can be used together with {getRoleMember} to enumerate all bearers of a role."
      },
      "grantRole(bytes32,address)": {
        "details": "Grants `role` to `account`.     * If `account` had not been already granted `role`, emits a {RoleGranted} event.     * Requirements:     * - the caller must have ``role``'s admin role."
      },
      "hasRole(bytes32,address)": {
        "details": "Returns `true` if `account` has been granted `role`."
      },
      "renounceRole(bytes32,address)": {
        "details": "Revokes `role` from the calling account.     * Roles are often managed via {grantRole} and {revokeRole}: this function's purpose is to provide a mechanism for accounts to lose their privileges if they are compromised (such as when a trusted device is misplaced).     * If the calling account had been granted `role`, emits a {RoleRevoked} event.     * Requirements:     * - the caller must be `account`."
      },
      "revokeRole(bytes32,address)": {
        "details": "Revokes `role` from `account`.     * If `account` had been granted `role`, emits a {RoleRevoked} event.     * Requirements:     * - the caller must have ``role``'s admin role."
      }
    }
  },
  "userdoc": {
    "methods": {}
  }
}